{
  "contractName": "bibleContract",
  "abi": [
    {
      "constant": false,
      "inputs": [
        {
          "name": "x",
          "type": "uint256"
        }
      ],
      "name": "setAmount",
      "outputs": [],
      "payable": false,
      "stateMutability": "nonpayable",
      "type": "function"
    },
    {
      "constant": true,
      "inputs": [],
      "name": "getAmount",
      "outputs": [
        {
          "name": "",
          "type": "uint256"
        }
      ],
      "payable": false,
      "stateMutability": "view",
      "type": "function"
    }
  ],
  "bytecode": "0x608060405234801561001057600080fd5b5060df8061001f6000396000f3006080604052600436106049576000357c0100000000000000000000000000000000000000000000000000000000900463ffffffff168063271f88b414604e578063d321fe29146078575b600080fd5b348015605957600080fd5b5060766004803603810190808035906020019092919050505060a0565b005b348015608357600080fd5b50608a60aa565b6040518082815260200191505060405180910390f35b8060008190555050565b600080549050905600a165627a7a723058203da802fcf23858d6611148356f47898f670a4c181d535773ee5953db12e3d6460029",
  "source": "pragma solidity ^0.4.0;\ncontract bibleContract {\n    uint amount;\n\n    function setAmount(uint x) public {\n        amount = x;\n    }\n\n    function getAmount() public constant returns (uint) {\n        return amount;\n    }\n}\n",
  "sourcePath": "/media/bereket/secondary_drive/playground/Bible-Based-BlockChain/contracts/bibleContract.sol",
  "compiler": {
    "name": "solc",
    "version": "0.4.24+commit.e67f0147.Emscripten.clang"
  },
  "schemaVersion": "2.0.1",
  "updatedAt": "2018-10-20T08:58:04.318Z"
}